{
  "contractName": "AppolloTokenCrowdsale",
  "abi": [
    {
      "inputs": [
        {
          "internalType": "uint256",
          "name": "rate",
          "type": "uint256"
        },
        {
          "internalType": "address payable",
          "name": "wallet",
          "type": "address"
        },
        {
          "internalType": "contract IERC20",
          "name": "token",
          "type": "address"
        },
        {
          "internalType": "uint256",
          "name": "cap",
          "type": "uint256"
        },
        {
          "internalType": "uint256",
          "name": "openingTime",
          "type": "uint256"
        },
        {
          "internalType": "uint256",
          "name": "closingTime",
          "type": "uint256"
        }
      ],
      "stateMutability": "nonpayable",
      "type": "constructor"
    },
    {
      "anonymous": false,
      "inputs": [
        {
          "indexed": false,
          "internalType": "uint256",
          "name": "prevClosingTime",
          "type": "uint256"
        },
        {
          "indexed": false,
          "internalType": "uint256",
          "name": "newClosingTime",
          "type": "uint256"
        }
      ],
      "name": "TimedCrowdsaleExtended",
      "type": "event"
    },
    {
      "anonymous": false,
      "inputs": [
        {
          "indexed": true,
          "internalType": "address",
          "name": "purchaser",
          "type": "address"
        },
        {
          "indexed": true,
          "internalType": "address",
          "name": "beneficiary",
          "type": "address"
        },
        {
          "indexed": false,
          "internalType": "uint256",
          "name": "value",
          "type": "uint256"
        },
        {
          "indexed": false,
          "internalType": "uint256",
          "name": "amount",
          "type": "uint256"
        }
      ],
      "name": "TokensPurchased",
      "type": "event"
    },
    {
      "inputs": [
        {
          "internalType": "address",
          "name": "beneficiary",
          "type": "address"
        }
      ],
      "name": "buyTokens",
      "outputs": [],
      "stateMutability": "payable",
      "type": "function",
      "payable": true
    },
    {
      "inputs": [],
      "name": "cap",
      "outputs": [
        {
          "internalType": "uint256",
          "name": "",
          "type": "uint256"
        }
      ],
      "stateMutability": "view",
      "type": "function",
      "constant": true
    },
    {
      "inputs": [],
      "name": "capReached",
      "outputs": [
        {
          "internalType": "bool",
          "name": "",
          "type": "bool"
        }
      ],
      "stateMutability": "view",
      "type": "function",
      "constant": true
    },
    {
      "inputs": [],
      "name": "closingTime",
      "outputs": [
        {
          "internalType": "uint256",
          "name": "",
          "type": "uint256"
        }
      ],
      "stateMutability": "view",
      "type": "function",
      "constant": true
    },
    {
      "inputs": [
        {
          "internalType": "address",
          "name": "",
          "type": "address"
        }
      ],
      "name": "contributions",
      "outputs": [
        {
          "internalType": "uint256",
          "name": "",
          "type": "uint256"
        }
      ],
      "stateMutability": "view",
      "type": "function",
      "constant": true
    },
    {
      "inputs": [],
      "name": "hasClosed",
      "outputs": [
        {
          "internalType": "bool",
          "name": "",
          "type": "bool"
        }
      ],
      "stateMutability": "view",
      "type": "function",
      "constant": true
    },
    {
      "inputs": [],
      "name": "investorHardCap",
      "outputs": [
        {
          "internalType": "uint256",
          "name": "",
          "type": "uint256"
        }
      ],
      "stateMutability": "view",
      "type": "function",
      "constant": true
    },
    {
      "inputs": [],
      "name": "investorMinCap",
      "outputs": [
        {
          "internalType": "uint256",
          "name": "",
          "type": "uint256"
        }
      ],
      "stateMutability": "view",
      "type": "function",
      "constant": true
    },
    {
      "inputs": [],
      "name": "isOpen",
      "outputs": [
        {
          "internalType": "bool",
          "name": "",
          "type": "bool"
        }
      ],
      "stateMutability": "view",
      "type": "function",
      "constant": true
    },
    {
      "inputs": [],
      "name": "openingTime",
      "outputs": [
        {
          "internalType": "uint256",
          "name": "",
          "type": "uint256"
        }
      ],
      "stateMutability": "view",
      "type": "function",
      "constant": true
    },
    {
      "inputs": [],
      "name": "rate",
      "outputs": [
        {
          "internalType": "uint256",
          "name": "",
          "type": "uint256"
        }
      ],
      "stateMutability": "view",
      "type": "function",
      "constant": true
    },
    {
      "inputs": [],
      "name": "token",
      "outputs": [
        {
          "internalType": "contract IERC20",
          "name": "",
          "type": "address"
        }
      ],
      "stateMutability": "view",
      "type": "function",
      "constant": true
    },
    {
      "inputs": [],
      "name": "wallet",
      "outputs": [
        {
          "internalType": "address payable",
          "name": "",
          "type": "address"
        }
      ],
      "stateMutability": "view",
      "type": "function",
      "constant": true
    },
    {
      "inputs": [],
      "name": "weiRaised",
      "outputs": [
        {
          "internalType": "uint256",
          "name": "",
          "type": "uint256"
        }
      ],
      "stateMutability": "view",
      "type": "function",
      "constant": true
    },
    {
      "stateMutability": "payable",
      "type": "receive",
      "payable": true
    }
  ],
  "bytecode": "0x608060405266470de4df8200006005556802b5e3af16b18800006006553480156200002957600080fd5b5060405162001bc238038062001bc283398181016040528101906200004f91906200034f565b818184888888600160008190555060008311620000a3576040517f08c379a00000000000000000000000000000000000000000000000000000000081526004016200009a9062000691565b60405180910390fd5b600073ffffffffffffffffffffffffffffffffffffffff168273ffffffffffffffffffffffffffffffffffffffff16141562000116576040517f08c379a00000000000000000000000000000000000000000000000000000000081526004016200010d90620006b3565b60405180910390fd5b600073ffffffffffffffffffffffffffffffffffffffff168173ffffffffffffffffffffffffffffffffffffffff16141562000189576040517f08c379a000000000000000000000000000000000000000000000000000000000815260040162000180906200064d565b60405180910390fd5b8260038190555081600260006101000a81548173ffffffffffffffffffffffffffffffffffffffff021916908373ffffffffffffffffffffffffffffffffffffffff16021790555080600160006101000a81548173ffffffffffffffffffffffffffffffffffffffff021916908373ffffffffffffffffffffffffffffffffffffffff160217905550505050600081116200025b576040517f08c379a000000000000000000000000000000000000000000000000000000000815260040162000252906200066f565b60405180910390fd5b806008819055505042821015620002a9576040517f08c379a0000000000000000000000000000000000000000000000000000000008152600401620002a09062000609565b60405180910390fd5b818111620002ee576040517f08c379a0000000000000000000000000000000000000000000000000000000008152600401620002e5906200062b565b60405180910390fd5b8160098190555080600a8190555050505050505050506200079a565b6000815190506200031b816200074c565b92915050565b600081519050620003328162000766565b92915050565b600081519050620003498162000780565b92915050565b60008060008060008060c087890312156200036957600080fd5b60006200037989828a0162000338565b96505060206200038c89828a016200030a565b95505060406200039f89828a0162000321565b9450506060620003b289828a0162000338565b9350506080620003c589828a0162000338565b92505060a0620003d889828a0162000338565b9150509295509295509295565b6000620003f4603383620006d5565b91507f54696d656443726f776473616c653a206f70656e696e672074696d652069732060008301527f6265666f72652063757272656e742074696d65000000000000000000000000006020830152604082019050919050565b60006200045c603783620006d5565b91507f54696d656443726f776473616c653a206f70656e696e672074696d652069732060008301527f6e6f74206265666f726520636c6f73696e672074696d650000000000000000006020830152604082019050919050565b6000620004c4602483620006d5565b91507f43726f776473616c653a20746f6b656e20697320746865207a65726f2061646460008301527f72657373000000000000000000000000000000000000000000000000000000006020830152604082019050919050565b60006200052c601983620006d5565b91507f43617070656443726f776473616c653a206361702069732030000000000000006000830152602082019050919050565b60006200056e601483620006d5565b91507f43726f776473616c653a207261746520697320300000000000000000000000006000830152602082019050919050565b6000620005b0602583620006d5565b91507f43726f776473616c653a2077616c6c657420697320746865207a65726f20616460008301527f64726573730000000000000000000000000000000000000000000000000000006020830152604082019050919050565b600060208201905081810360008301526200062481620003e5565b9050919050565b6000602082019050818103600083015262000646816200044d565b9050919050565b600060208201905081810360008301526200066881620004b5565b9050919050565b600060208201905081810360008301526200068a816200051d565b9050919050565b60006020820190508181036000830152620006ac816200055f565b9050919050565b60006020820190508181036000830152620006ce81620005a1565b9050919050565b600082825260208201905092915050565b6000620006f38262000722565b9050919050565b6000620007078262000722565b9050919050565b60006200071b82620006e6565b9050919050565b600073ffffffffffffffffffffffffffffffffffffffff82169050919050565b6000819050919050565b6200075781620006fa565b81146200076357600080fd5b50565b62000771816200070e565b81146200077d57600080fd5b50565b6200078b8162000742565b81146200079757600080fd5b50565b61141880620007aa6000396000f3fe6080604052600436106100e15760003560e01c80634f9359451161007f578063b7a8807c11610059578063b7a8807c146102bd578063ec8ac4d8146102e8578063ed5db87414610304578063fc0c546a1461032f576100f8565b80634f9359451461023c578063521eb27314610267578063b25d7f5414610292576100f8565b80634042b66f116100bb5780634042b66f1461017e57806342e94c90146101a957806347535d7b146101e65780634b6753bc14610211576100f8565b80631515bc2b146100fd5780632c4e722e14610128578063355274ea14610153576100f8565b366100f8576100f66100f161035a565b610362565b005b600080fd5b34801561010957600080fd5b50610112610488565b60405161011f9190611025565b60405180910390f35b34801561013457600080fd5b5061013d610494565b60405161014a919061119d565b60405180910390f35b34801561015f57600080fd5b5061016861049e565b604051610175919061119d565b60405180910390f35b34801561018a57600080fd5b506101936104a8565b6040516101a0919061119d565b60405180910390f35b3480156101b557600080fd5b506101d060048036038101906101cb9190610beb565b6104b2565b6040516101dd919061119d565b60405180910390f35b3480156101f257600080fd5b506101fb6104ca565b6040516102089190611025565b60405180910390f35b34801561021d57600080fd5b506102266104e5565b604051610233919061119d565b60405180910390f35b34801561024857600080fd5b506102516104ef565b60405161025e9190611025565b60405180910390f35b34801561027357600080fd5b5061027c610503565b6040516102899190610fe1565b60405180910390f35b34801561029e57600080fd5b506102a761052d565b6040516102b4919061119d565b60405180910390f35b3480156102c957600080fd5b506102d2610533565b6040516102df919061119d565b60405180910390f35b61030260048036038101906102fd9190610beb565b610362565b005b34801561031057600080fd5b5061031961053d565b604051610326919061119d565b60405180910390f35b34801561033b57600080fd5b50610344610543565b6040516103519190611040565b60405180910390f35b600033905090565b600260005414156103a8576040517f08c379a000000000000000000000000000000000000000000000000000000000815260040161039f9061115d565b60405180910390fd5b600260008190555060003490506103bf828261056d565b60006103ca8261057b565b90506103e18260045461059990919063ffffffff16565b6004819055506103f183826105af565b8273ffffffffffffffffffffffffffffffffffffffff1661041061035a565b73ffffffffffffffffffffffffffffffffffffffff167f6faf93231a456e552dbc9961f58d9713ee4f2e69d15f1975b050ef0911053a7b84846040516104579291906111b8565b60405180910390a361046983836105bd565b6104716105c1565b61047b838361062c565b5050600160008190555050565b6000600a544211905090565b6000600354905090565b6000600854905090565b6000600454905090565b60076020528060005260406000206000915090505481565b600060095442101580156104e05750600a544211155b905090565b6000600a54905090565b60006008546104fc6104a8565b1015905090565b6000600260009054906101000a900473ffffffffffffffffffffffffffffffffffffffff16905090565b60055481565b6000600954905090565b60065481565b6000600160009054906101000a900473ffffffffffffffffffffffffffffffffffffffff16905090565b6105778282610630565b5050565b60006105926003548361068590919063ffffffff16565b9050919050565b600081836105a79190611213565b905092915050565b6105b9828261069b565b5050565b5050565b600260009054906101000a900473ffffffffffffffffffffffffffffffffffffffff1673ffffffffffffffffffffffffffffffffffffffff166108fc349081150290604051600060405180830381858888f19350505050158015610629573d6000803e3d6000fd5b50565b5050565b6106386104ca565b610677576040517f08c379a000000000000000000000000000000000000000000000000000000000815260040161066e9061107d565b60405180910390fd5b61068182826106ec565b5050565b600081836106939190611269565b905092915050565b6106e88282600160009054906101000a900473ffffffffffffffffffffffffffffffffffffffff1673ffffffffffffffffffffffffffffffffffffffff166107629092919063ffffffff16565b5050565b6106f682826107e8565b61070082826108a0565b60085461071d8261070f6104a8565b61059990919063ffffffff16565b111561075e576040517f08c379a00000000000000000000000000000000000000000000000000000000081526004016107559061109d565b60405180910390fd5b5050565b6107e38363a9059cbb60e01b8484604051602401610781929190610ffc565b604051602081830303815290604052907bffffffffffffffffffffffffffffffffffffffffffffffffffffffff19166020820180517bffffffffffffffffffffffffffffffffffffffffffffffffffffffff8381831617835250505050610954565b505050565b600073ffffffffffffffffffffffffffffffffffffffff168273ffffffffffffffffffffffffffffffffffffffff161415610858576040517f08c379a000000000000000000000000000000000000000000000000000000000815260040161084f906110dd565b60405180910390fd5b600081141561089c576040517f08c379a00000000000000000000000000000000000000000000000000000000081526004016108939061117d565b60405180910390fd5b5050565b6000600760008473ffffffffffffffffffffffffffffffffffffffff1673ffffffffffffffffffffffffffffffffffffffff16815260200190815260200160002054905060006108f9838361059990919063ffffffff16565b9050600554811015801561090f57506006548111155b61094e576040517f08c379a0000000000000000000000000000000000000000000000000000000008152600401610945906110fd565b60405180910390fd5b50505050565b60006109b6826040518060400160405280602081526020017f5361666545524332303a206c6f772d6c6576656c2063616c6c206661696c65648152508573ffffffffffffffffffffffffffffffffffffffff16610a1b9092919063ffffffff16565b9050600081511115610a1657808060200190518101906109d69190610c14565b610a15576040517f08c379a0000000000000000000000000000000000000000000000000000000008152600401610a0c9061113d565b60405180910390fd5b5b505050565b6060610a2a8484600085610a33565b90509392505050565b606082471015610a78576040517f08c379a0000000000000000000000000000000000000000000000000000000008152600401610a6f906110bd565b60405180910390fd5b610a8185610b47565b610ac0576040517f08c379a0000000000000000000000000000000000000000000000000000000008152600401610ab79061111d565b60405180910390fd5b6000808673ffffffffffffffffffffffffffffffffffffffff168587604051610ae99190610fca565b60006040518083038185875af1925050503d8060008114610b26576040519150601f19603f3d011682016040523d82523d6000602084013e610b2b565b606091505b5091509150610b3b828286610b5a565b92505050949350505050565b600080823b905060008111915050919050565b60608315610b6a57829050610bba565b600083511115610b7d5782518084602001fd5b816040517f08c379a0000000000000000000000000000000000000000000000000000000008152600401610bb1919061105b565b60405180910390fd5b9392505050565b600081359050610bd0816113b4565b92915050565b600081519050610be5816113cb565b92915050565b600060208284031215610bfd57600080fd5b6000610c0b84828501610bc1565b91505092915050565b600060208284031215610c2657600080fd5b6000610c3484828501610bd6565b91505092915050565b610c46816112d5565b82525050565b610c55816112c3565b82525050565b610c64816112e7565b82525050565b6000610c75826111e1565b610c7f81856111f7565b9350610c8f818560208601611341565b80840191505092915050565b610ca48161131d565b82525050565b6000610cb5826111ec565b610cbf8185611202565b9350610ccf818560208601611341565b610cd8816113a3565b840191505092915050565b6000610cf0601883611202565b91507f54696d656443726f776473616c653a206e6f74206f70656e00000000000000006000830152602082019050919050565b6000610d30601d83611202565b91507f43617070656443726f776473616c653a206361702065786365656465640000006000830152602082019050919050565b6000610d70602683611202565b91507f416464726573733a20696e73756666696369656e742062616c616e636520666f60008301527f722063616c6c00000000000000000000000000000000000000000000000000006020830152604082019050919050565b6000610dd6602a83611202565b91507f43726f776473616c653a2062656e656669636961727920697320746865207a6560008301527f726f2061646472657373000000000000000000000000000000000000000000006020830152604082019050919050565b6000610e3c602683611202565b91507f49766573746f72206d757374206d656574206361706974616c2072657175697260008301527f656d656e747300000000000000000000000000000000000000000000000000006020830152604082019050919050565b6000610ea2601d83611202565b91507f416464726573733a2063616c6c20746f206e6f6e2d636f6e74726163740000006000830152602082019050919050565b6000610ee2602a83611202565b91507f5361666545524332303a204552433230206f7065726174696f6e20646964206e60008301527f6f742073756363656564000000000000000000000000000000000000000000006020830152604082019050919050565b6000610f48601f83611202565b91507f5265656e7472616e637947756172643a207265656e7472616e742063616c6c006000830152602082019050919050565b6000610f88601983611202565b91507f43726f776473616c653a20776569416d6f756e742069732030000000000000006000830152602082019050919050565b610fc481611313565b82525050565b6000610fd68284610c6a565b915081905092915050565b6000602082019050610ff66000830184610c3d565b92915050565b60006040820190506110116000830185610c4c565b61101e6020830184610fbb565b9392505050565b600060208201905061103a6000830184610c5b565b92915050565b60006020820190506110556000830184610c9b565b92915050565b600060208201905081810360008301526110758184610caa565b905092915050565b6000602082019050818103600083015261109681610ce3565b9050919050565b600060208201905081810360008301526110b681610d23565b9050919050565b600060208201905081810360008301526110d681610d63565b9050919050565b600060208201905081810360008301526110f681610dc9565b9050919050565b6000602082019050818103600083015261111681610e2f565b9050919050565b6000602082019050818103600083015261113681610e95565b9050919050565b6000602082019050818103600083015261115681610ed5565b9050919050565b6000602082019050818103600083015261117681610f3b565b9050919050565b6000602082019050818103600083015261119681610f7b565b9050919050565b60006020820190506111b26000830184610fbb565b92915050565b60006040820190506111cd6000830185610fbb565b6111da6020830184610fbb565b9392505050565b600081519050919050565b600081519050919050565b600081905092915050565b600082825260208201905092915050565b600061121e82611313565b915061122983611313565b9250827fffffffffffffffffffffffffffffffffffffffffffffffffffffffffffffffff0382111561125e5761125d611374565b5b828201905092915050565b600061127482611313565b915061127f83611313565b9250817fffffffffffffffffffffffffffffffffffffffffffffffffffffffffffffffff04831182151516156112b8576112b7611374565b5b828202905092915050565b60006112ce826112f3565b9050919050565b60006112e0826112f3565b9050919050565b60008115159050919050565b600073ffffffffffffffffffffffffffffffffffffffff82169050919050565b6000819050919050565b60006113288261132f565b9050919050565b600061133a826112f3565b9050919050565b60005b8381101561135f578082015181840152602081019050611344565b8381111561136e576000848401525b50505050565b7f4e487b7100000000000000000000000000000000000000000000000000000000600052601160045260246000fd5b6000601f19601f8301169050919050565b6113bd816112c3565b81146113c857600080fd5b50565b6113d4816112e7565b81146113df57600080fd5b5056fea2646970667358221220b34663516d1b36c74d5ea6c803465f24db0f133c23e669993e10c8cd2914014f64736f6c63430008000033",
  "immutableReferences": {},
  "source": "// SPDX-License-Identifier: All Rights Reserved\"\npragma solidity ^0.8.0;\n\nimport \"@openzeppelin//contracts/utils/math/SafeMath.sol\";\nimport \"./CappedCrowdsale.sol\";\nimport \"./TimedCrowdsale.sol\";\nimport \"./WhitelistedCrowdsale.sol\";\nimport \"./Crowdsale.sol\";\nimport \"./KycContract.sol\";\n\ncontract AppolloTokenCrowdsale is Crowdsale, CappedCrowdsale, TimedCrowdsale {\n\n    using SafeMath for uint256;\n\n    KycContract kyc;\n    constructor(\n        // rate in TKNbits\n        uint256 rate, \n        address payable wallet,\n        IERC20 token, \n        uint cap,\n        uint256 openingTime,\n        uint256 closingTime)\n        Crowdsale(rate, wallet, token)\n        CappedCrowdsale(cap)\n        TimedCrowdsale( openingTime,closingTime)\n    { \n        \n        }\n\n    function _preValidatePurchase(address beneficiary, uint256 weiAmount) \n    internal view override(Crowdsale, CappedCrowdsale,TimedCrowdsale){\n        super._preValidatePurchase(beneficiary, weiAmount);\n        // require(kyc.kycCompleted(beneficiary), \"KYC not completed yet, aborting\");\n    }\n\n}",
  "sourcePath": "/Users/Thomas/Desktop/cryptoAppV1/contracts/AppolloTokenCrowdsale.sol",
  "compiler": {
    "name": "solc",
    "version": "0.8.0+commit.c7dfd78e.Emscripten.clang"
  },
  "schemaVersion": "3.3.4",
  "updatedAt": "2021-05-04T22:58:13.624Z",
  "networkType": "ethereum",
  "devdoc": {
    "kind": "dev",
    "methods": {
      "buyTokens(address)": {
        "details": "low level token purchase ***DO NOT OVERRIDE*** This function has a non-reentrancy guard, so it shouldn't be called by another `nonReentrant` function.",
        "params": {
          "beneficiary": "Recipient of the token purchase"
        }
      },
      "cap()": {
        "returns": {
          "_0": "the cap of the crowdsale."
        }
      },
      "capReached()": {
        "details": "Checks whether the cap has been reached.",
        "returns": {
          "_0": "Whether the cap was reached"
        }
      },
      "closingTime()": {
        "returns": {
          "_0": "the crowdsale closing time."
        }
      },
      "hasClosed()": {
        "details": "Checks whether the period in which the crowdsale is open has already elapsed.",
        "returns": {
          "_0": "Whether crowdsale period has elapsed"
        }
      },
      "isOpen()": {
        "returns": {
          "_0": "true if the crowdsale is open, false otherwise."
        }
      },
      "openingTime()": {
        "returns": {
          "_0": "the crowdsale opening time."
        }
      },
      "rate()": {
        "returns": {
          "_0": "the number of token units a buyer gets per wei."
        }
      },
      "token()": {
        "returns": {
          "_0": "the token being sold."
        }
      },
      "wallet()": {
        "returns": {
          "_0": "the address where funds are collected."
        }
      },
      "weiRaised()": {
        "returns": {
          "_0": "the amount of wei raised."
        }
      }
    },
    "version": 1
  },
  "userdoc": {
    "events": {
      "TimedCrowdsaleExtended(uint256,uint256)": {
        "notice": "Event for crowdsale extending"
      },
      "TokensPurchased(address,address,uint256,uint256)": {
        "notice": "Event for token purchase logging"
      }
    },
    "kind": "user",
    "methods": {},
    "version": 1
  }
}