{
  "contractName": "AppolloTokenCrowdsale",
  "abi": [
    {
      "inputs": [
        {
          "internalType": "uint256",
          "name": "rate",
          "type": "uint256"
        },
        {
          "internalType": "address payable",
          "name": "wallet",
          "type": "address"
        },
        {
          "internalType": "contract IERC20",
          "name": "token",
          "type": "address"
        },
        {
          "internalType": "uint256",
          "name": "cap",
          "type": "uint256"
        },
        {
          "internalType": "uint256",
          "name": "openingTime",
          "type": "uint256"
        },
        {
          "internalType": "uint256",
          "name": "closingTime",
          "type": "uint256"
        },
        {
          "internalType": "contract KycContract",
          "name": "_kyc",
          "type": "address"
        }
      ],
      "stateMutability": "nonpayable",
      "type": "constructor"
    },
    {
      "anonymous": false,
      "inputs": [
        {
          "indexed": false,
          "internalType": "uint256",
          "name": "prevClosingTime",
          "type": "uint256"
        },
        {
          "indexed": false,
          "internalType": "uint256",
          "name": "newClosingTime",
          "type": "uint256"
        }
      ],
      "name": "TimedCrowdsaleExtended",
      "type": "event"
    },
    {
      "anonymous": false,
      "inputs": [
        {
          "indexed": true,
          "internalType": "address",
          "name": "purchaser",
          "type": "address"
        },
        {
          "indexed": true,
          "internalType": "address",
          "name": "beneficiary",
          "type": "address"
        },
        {
          "indexed": false,
          "internalType": "uint256",
          "name": "value",
          "type": "uint256"
        },
        {
          "indexed": false,
          "internalType": "uint256",
          "name": "amount",
          "type": "uint256"
        }
      ],
      "name": "TokensPurchased",
      "type": "event"
    },
    {
      "inputs": [
        {
          "internalType": "address",
          "name": "beneficiary",
          "type": "address"
        }
      ],
      "name": "buyTokens",
      "outputs": [],
      "stateMutability": "payable",
      "type": "function"
    },
    {
      "inputs": [],
      "name": "cap",
      "outputs": [
        {
          "internalType": "uint256",
          "name": "",
          "type": "uint256"
        }
      ],
      "stateMutability": "view",
      "type": "function"
    },
    {
      "inputs": [],
      "name": "capReached",
      "outputs": [
        {
          "internalType": "bool",
          "name": "",
          "type": "bool"
        }
      ],
      "stateMutability": "view",
      "type": "function"
    },
    {
      "inputs": [],
      "name": "closingTime",
      "outputs": [
        {
          "internalType": "uint256",
          "name": "",
          "type": "uint256"
        }
      ],
      "stateMutability": "view",
      "type": "function"
    },
    {
      "inputs": [
        {
          "internalType": "address",
          "name": "",
          "type": "address"
        }
      ],
      "name": "contributions",
      "outputs": [
        {
          "internalType": "uint256",
          "name": "",
          "type": "uint256"
        }
      ],
      "stateMutability": "view",
      "type": "function"
    },
    {
      "inputs": [],
      "name": "hasClosed",
      "outputs": [
        {
          "internalType": "bool",
          "name": "",
          "type": "bool"
        }
      ],
      "stateMutability": "view",
      "type": "function"
    },
    {
      "inputs": [],
      "name": "investorHardCap",
      "outputs": [
        {
          "internalType": "uint256",
          "name": "",
          "type": "uint256"
        }
      ],
      "stateMutability": "view",
      "type": "function"
    },
    {
      "inputs": [],
      "name": "investorMinCap",
      "outputs": [
        {
          "internalType": "uint256",
          "name": "",
          "type": "uint256"
        }
      ],
      "stateMutability": "view",
      "type": "function"
    },
    {
      "inputs": [],
      "name": "isOpen",
      "outputs": [
        {
          "internalType": "bool",
          "name": "",
          "type": "bool"
        }
      ],
      "stateMutability": "view",
      "type": "function"
    },
    {
      "inputs": [],
      "name": "openingTime",
      "outputs": [
        {
          "internalType": "uint256",
          "name": "",
          "type": "uint256"
        }
      ],
      "stateMutability": "view",
      "type": "function"
    },
    {
      "inputs": [],
      "name": "rate",
      "outputs": [
        {
          "internalType": "uint256",
          "name": "",
          "type": "uint256"
        }
      ],
      "stateMutability": "view",
      "type": "function"
    },
    {
      "inputs": [],
      "name": "token",
      "outputs": [
        {
          "internalType": "contract IERC20",
          "name": "",
          "type": "address"
        }
      ],
      "stateMutability": "view",
      "type": "function"
    },
    {
      "inputs": [],
      "name": "wallet",
      "outputs": [
        {
          "internalType": "address payable",
          "name": "",
          "type": "address"
        }
      ],
      "stateMutability": "view",
      "type": "function"
    },
    {
      "inputs": [],
      "name": "weiRaised",
      "outputs": [
        {
          "internalType": "uint256",
          "name": "",
          "type": "uint256"
        }
      ],
      "stateMutability": "view",
      "type": "function"
    },
    {
      "stateMutability": "payable",
      "type": "receive"
    }
  ],
  "bytecode": "0x608060405266071afd498d00006005556802b5e3af16b18800006006553480156200002957600080fd5b5060405162001dc538038062001dc583398181016040528101906200004f9190620003a8565b828285898989600160008190555060008311620000a3576040517f08c379a00000000000000000000000000000000000000000000000000000000081526004016200009a9062000701565b60405180910390fd5b600073ffffffffffffffffffffffffffffffffffffffff168273ffffffffffffffffffffffffffffffffffffffff16141562000116576040517f08c379a00000000000000000000000000000000000000000000000000000000081526004016200010d9062000723565b60405180910390fd5b600073ffffffffffffffffffffffffffffffffffffffff168173ffffffffffffffffffffffffffffffffffffffff16141562000189576040517f08c379a00000000000000000000000000000000000000000000000000000000081526004016200018090620006bd565b60405180910390fd5b8260038190555081600260006101000a81548173ffffffffffffffffffffffffffffffffffffffff021916908373ffffffffffffffffffffffffffffffffffffffff16021790555080600160006101000a81548173ffffffffffffffffffffffffffffffffffffffff021916908373ffffffffffffffffffffffffffffffffffffffff160217905550505050600081116200025b576040517f08c379a00000000000000000000000000000000000000000000000000000000081526004016200025290620006df565b60405180910390fd5b806008819055505042821015620002a9576040517f08c379a0000000000000000000000000000000000000000000000000000000008152600401620002a09062000679565b60405180910390fd5b818111620002ee576040517f08c379a0000000000000000000000000000000000000000000000000000000008152600401620002e5906200069b565b60405180910390fd5b8160098190555080600a81905550505080600b60006101000a81548173ffffffffffffffffffffffffffffffffffffffff021916908373ffffffffffffffffffffffffffffffffffffffff1602179055505050505050505062000838565b6000815190506200035d81620007d0565b92915050565b6000815190506200037481620007ea565b92915050565b6000815190506200038b8162000804565b92915050565b600081519050620003a2816200081e565b92915050565b600080600080600080600060e0888a031215620003c457600080fd5b6000620003d48a828b0162000391565b9750506020620003e78a828b016200034c565b9650506040620003fa8a828b0162000363565b95505060606200040d8a828b0162000391565b9450506080620004208a828b0162000391565b93505060a0620004338a828b0162000391565b92505060c0620004468a828b016200037a565b91505092959891949750929550565b60006200046460338362000745565b91507f54696d656443726f776473616c653a206f70656e696e672074696d652069732060008301527f6265666f72652063757272656e742074696d65000000000000000000000000006020830152604082019050919050565b6000620004cc60378362000745565b91507f54696d656443726f776473616c653a206f70656e696e672074696d652069732060008301527f6e6f74206265666f726520636c6f73696e672074696d650000000000000000006020830152604082019050919050565b60006200053460248362000745565b91507f43726f776473616c653a20746f6b656e20697320746865207a65726f2061646460008301527f72657373000000000000000000000000000000000000000000000000000000006020830152604082019050919050565b60006200059c60198362000745565b91507f43617070656443726f776473616c653a206361702069732030000000000000006000830152602082019050919050565b6000620005de60148362000745565b91507f43726f776473616c653a207261746520697320300000000000000000000000006000830152602082019050919050565b60006200062060258362000745565b91507f43726f776473616c653a2077616c6c657420697320746865207a65726f20616460008301527f64726573730000000000000000000000000000000000000000000000000000006020830152604082019050919050565b60006020820190508181036000830152620006948162000455565b9050919050565b60006020820190508181036000830152620006b681620004bd565b9050919050565b60006020820190508181036000830152620006d88162000525565b9050919050565b60006020820190508181036000830152620006fa816200058d565b9050919050565b600060208201905081810360008301526200071c81620005cf565b9050919050565b600060208201905081810360008301526200073e8162000611565b9050919050565b600082825260208201905092915050565b60006200076382620007a6565b9050919050565b60006200077782620007a6565b9050919050565b60006200078b8262000756565b9050919050565b60006200079f8262000756565b9050919050565b600073ffffffffffffffffffffffffffffffffffffffff82169050919050565b6000819050919050565b620007db816200076a565b8114620007e757600080fd5b50565b620007f5816200077e565b81146200080157600080fd5b50565b6200080f8162000792565b81146200081b57600080fd5b50565b6200082981620007c6565b81146200083557600080fd5b50565b61157d80620008486000396000f3fe6080604052600436106100e15760003560e01c80634f9359451161007f578063b7a8807c11610059578063b7a8807c146102bd578063ec8ac4d8146102e8578063ed5db87414610304578063fc0c546a1461032f576100f8565b80634f9359451461023c578063521eb27314610267578063b25d7f5414610292576100f8565b80634042b66f116100bb5780634042b66f1461017e57806342e94c90146101a957806347535d7b146101e65780634b6753bc14610211576100f8565b80631515bc2b146100fd5780632c4e722e14610128578063355274ea14610153576100f8565b366100f8576100f66100f161035a565b610362565b005b600080fd5b34801561010957600080fd5b50610112610488565b60405161011f919061116a565b60405180910390f35b34801561013457600080fd5b5061013d610494565b60405161014a9190611302565b60405180910390f35b34801561015f57600080fd5b5061016861049e565b6040516101759190611302565b60405180910390f35b34801561018a57600080fd5b506101936104a8565b6040516101a09190611302565b60405180910390f35b3480156101b557600080fd5b506101d060048036038101906101cb9190610cd5565b6104b2565b6040516101dd9190611302565b60405180910390f35b3480156101f257600080fd5b506101fb6104ca565b604051610208919061116a565b60405180910390f35b34801561021d57600080fd5b506102266104e5565b6040516102339190611302565b60405180910390f35b34801561024857600080fd5b506102516104ef565b60405161025e919061116a565b60405180910390f35b34801561027357600080fd5b5061027c610503565b6040516102899190611126565b60405180910390f35b34801561029e57600080fd5b506102a761052d565b6040516102b49190611302565b60405180910390f35b3480156102c957600080fd5b506102d2610533565b6040516102df9190611302565b60405180910390f35b61030260048036038101906102fd9190610cd5565b610362565b005b34801561031057600080fd5b5061031961053d565b6040516103269190611302565b60405180910390f35b34801561033b57600080fd5b50610344610543565b6040516103519190611185565b60405180910390f35b600033905090565b600260005414156103a8576040517f08c379a000000000000000000000000000000000000000000000000000000000815260040161039f906112c2565b60405180910390fd5b600260008190555060003490506103bf828261056d565b60006103ca82610665565b90506103e18260045461068390919063ffffffff16565b6004819055506103f18382610699565b8273ffffffffffffffffffffffffffffffffffffffff1661041061035a565b73ffffffffffffffffffffffffffffffffffffffff167f6faf93231a456e552dbc9961f58d9713ee4f2e69d15f1975b050ef0911053a7b848460405161045792919061131d565b60405180910390a361046983836106a7565b6104716106ab565b61047b8383610716565b5050600160008190555050565b6000600a544211905090565b6000600354905090565b6000600854905090565b6000600454905090565b60076020528060005260406000206000915090505481565b600060095442101580156104e05750600a544211155b905090565b6000600a54905090565b60006008546104fc6104a8565b1015905090565b6000600260009054906101000a900473ffffffffffffffffffffffffffffffffffffffff16905090565b60055481565b6000600954905090565b60065481565b6000600160009054906101000a900473ffffffffffffffffffffffffffffffffffffffff16905090565b610577828261071a565b600b60009054906101000a900473ffffffffffffffffffffffffffffffffffffffff1673ffffffffffffffffffffffffffffffffffffffff1663df235fe4836040518263ffffffff1660e01b81526004016105d2919061110b565b60206040518083038186803b1580156105ea57600080fd5b505afa1580156105fe573d6000803e3d6000fd5b505050506040513d601f19601f820116820180604052508101906106229190610cfe565b610661576040517f08c379a000000000000000000000000000000000000000000000000000000000815260040161065890611222565b60405180910390fd5b5050565b600061067c6003548361076f90919063ffffffff16565b9050919050565b600081836106919190611378565b905092915050565b6106a38282610785565b5050565b5050565b600260009054906101000a900473ffffffffffffffffffffffffffffffffffffffff1673ffffffffffffffffffffffffffffffffffffffff166108fc349081150290604051600060405180830381858888f19350505050158015610713573d6000803e3d6000fd5b50565b5050565b6107226104ca565b610761576040517f08c379a0000000000000000000000000000000000000000000000000000000008152600401610758906111c2565b60405180910390fd5b61076b82826107d6565b5050565b6000818361077d91906113ce565b905092915050565b6107d28282600160009054906101000a900473ffffffffffffffffffffffffffffffffffffffff1673ffffffffffffffffffffffffffffffffffffffff1661084c9092919063ffffffff16565b5050565b6107e082826108d2565b6107ea828261098a565b600854610807826107f96104a8565b61068390919063ffffffff16565b1115610848576040517f08c379a000000000000000000000000000000000000000000000000000000000815260040161083f906111e2565b60405180910390fd5b5050565b6108cd8363a9059cbb60e01b848460405160240161086b929190611141565b604051602081830303815290604052907bffffffffffffffffffffffffffffffffffffffffffffffffffffffff19166020820180517bffffffffffffffffffffffffffffffffffffffffffffffffffffffff8381831617835250505050610a3e565b505050565b600073ffffffffffffffffffffffffffffffffffffffff168273ffffffffffffffffffffffffffffffffffffffff161415610942576040517f08c379a000000000000000000000000000000000000000000000000000000000815260040161093990611242565b60405180910390fd5b6000811415610986576040517f08c379a000000000000000000000000000000000000000000000000000000000815260040161097d906112e2565b60405180910390fd5b5050565b6000600760008473ffffffffffffffffffffffffffffffffffffffff1673ffffffffffffffffffffffffffffffffffffffff16815260200190815260200160002054905060006109e3838361068390919063ffffffff16565b905060055481101580156109f957506006548111155b610a38576040517f08c379a0000000000000000000000000000000000000000000000000000000008152600401610a2f90611262565b60405180910390fd5b50505050565b6000610aa0826040518060400160405280602081526020017f5361666545524332303a206c6f772d6c6576656c2063616c6c206661696c65648152508573ffffffffffffffffffffffffffffffffffffffff16610b059092919063ffffffff16565b9050600081511115610b005780806020019051810190610ac09190610cfe565b610aff576040517f08c379a0000000000000000000000000000000000000000000000000000000008152600401610af6906112a2565b60405180910390fd5b5b505050565b6060610b148484600085610b1d565b90509392505050565b606082471015610b62576040517f08c379a0000000000000000000000000000000000000000000000000000000008152600401610b5990611202565b60405180910390fd5b610b6b85610c31565b610baa576040517f08c379a0000000000000000000000000000000000000000000000000000000008152600401610ba190611282565b60405180910390fd5b6000808673ffffffffffffffffffffffffffffffffffffffff168587604051610bd391906110f4565b60006040518083038185875af1925050503d8060008114610c10576040519150601f19603f3d011682016040523d82523d6000602084013e610c15565b606091505b5091509150610c25828286610c44565b92505050949350505050565b600080823b905060008111915050919050565b60608315610c5457829050610ca4565b600083511115610c675782518084602001fd5b816040517f08c379a0000000000000000000000000000000000000000000000000000000008152600401610c9b91906111a0565b60405180910390fd5b9392505050565b600081359050610cba81611519565b92915050565b600081519050610ccf81611530565b92915050565b600060208284031215610ce757600080fd5b6000610cf584828501610cab565b91505092915050565b600060208284031215610d1057600080fd5b6000610d1e84828501610cc0565b91505092915050565b610d308161143a565b82525050565b610d3f81611428565b82525050565b610d4e8161144c565b82525050565b6000610d5f82611346565b610d69818561135c565b9350610d798185602086016114a6565b80840191505092915050565b610d8e81611482565b82525050565b6000610d9f82611351565b610da98185611367565b9350610db98185602086016114a6565b610dc281611508565b840191505092915050565b6000610dda601883611367565b91507f54696d656443726f776473616c653a206e6f74206f70656e00000000000000006000830152602082019050919050565b6000610e1a601d83611367565b91507f43617070656443726f776473616c653a206361702065786365656465640000006000830152602082019050919050565b6000610e5a602683611367565b91507f416464726573733a20696e73756666696369656e742062616c616e636520666f60008301527f722063616c6c00000000000000000000000000000000000000000000000000006020830152604082019050919050565b6000610ec0601f83611367565b91507f4b5943206e6f7420636f6d706c65746564207965742c2061626f7274696e67006000830152602082019050919050565b6000610f00602a83611367565b91507f43726f776473616c653a2062656e656669636961727920697320746865207a6560008301527f726f2061646472657373000000000000000000000000000000000000000000006020830152604082019050919050565b6000610f66602683611367565b91507f49766573746f72206d757374206d656574206361706974616c2072657175697260008301527f656d656e747300000000000000000000000000000000000000000000000000006020830152604082019050919050565b6000610fcc601d83611367565b91507f416464726573733a2063616c6c20746f206e6f6e2d636f6e74726163740000006000830152602082019050919050565b600061100c602a83611367565b91507f5361666545524332303a204552433230206f7065726174696f6e20646964206e60008301527f6f742073756363656564000000000000000000000000000000000000000000006020830152604082019050919050565b6000611072601f83611367565b91507f5265656e7472616e637947756172643a207265656e7472616e742063616c6c006000830152602082019050919050565b60006110b2601983611367565b91507f43726f776473616c653a20776569416d6f756e742069732030000000000000006000830152602082019050919050565b6110ee81611478565b82525050565b60006111008284610d54565b915081905092915050565b60006020820190506111206000830184610d36565b92915050565b600060208201905061113b6000830184610d27565b92915050565b60006040820190506111566000830185610d36565b61116360208301846110e5565b9392505050565b600060208201905061117f6000830184610d45565b92915050565b600060208201905061119a6000830184610d85565b92915050565b600060208201905081810360008301526111ba8184610d94565b905092915050565b600060208201905081810360008301526111db81610dcd565b9050919050565b600060208201905081810360008301526111fb81610e0d565b9050919050565b6000602082019050818103600083015261121b81610e4d565b9050919050565b6000602082019050818103600083015261123b81610eb3565b9050919050565b6000602082019050818103600083015261125b81610ef3565b9050919050565b6000602082019050818103600083015261127b81610f59565b9050919050565b6000602082019050818103600083015261129b81610fbf565b9050919050565b600060208201905081810360008301526112bb81610fff565b9050919050565b600060208201905081810360008301526112db81611065565b9050919050565b600060208201905081810360008301526112fb816110a5565b9050919050565b600060208201905061131760008301846110e5565b92915050565b600060408201905061133260008301856110e5565b61133f60208301846110e5565b9392505050565b600081519050919050565b600081519050919050565b600081905092915050565b600082825260208201905092915050565b600061138382611478565b915061138e83611478565b9250827fffffffffffffffffffffffffffffffffffffffffffffffffffffffffffffffff038211156113c3576113c26114d9565b5b828201905092915050565b60006113d982611478565b91506113e483611478565b9250817fffffffffffffffffffffffffffffffffffffffffffffffffffffffffffffffff048311821515161561141d5761141c6114d9565b5b828202905092915050565b600061143382611458565b9050919050565b600061144582611458565b9050919050565b60008115159050919050565b600073ffffffffffffffffffffffffffffffffffffffff82169050919050565b6000819050919050565b600061148d82611494565b9050919050565b600061149f82611458565b9050919050565b60005b838110156114c45780820151818401526020810190506114a9565b838111156114d3576000848401525b50505050565b7f4e487b7100000000000000000000000000000000000000000000000000000000600052601160045260246000fd5b6000601f19601f8301169050919050565b61152281611428565b811461152d57600080fd5b50565b6115398161144c565b811461154457600080fd5b5056fea2646970667358221220cee4b4e2557f29ca510ac64ee97cb5b81fe808ab8f8256f63caaf28c27e54eeb64736f6c63430008000033",
  "immutableReferences": {},
  "source": "// SPDX-License-Identifier: All Rights Reserved\"\npragma solidity ^0.8.0;\n\nimport \"@openzeppelin//contracts/utils/math/SafeMath.sol\";\nimport \"./CappedCrowdsale.sol\";\nimport \"./TimedCrowdsale.sol\";\nimport \"./Crowdsale.sol\";\nimport \"./KycContract.sol\";\n\ncontract AppolloTokenCrowdsale is Crowdsale, CappedCrowdsale, TimedCrowdsale {\n\n    using SafeMath for uint256;\n\n    KycContract kyc;\n    constructor(\n        // rate in TKNbits\n        uint256 rate, \n        address payable wallet,\n        IERC20 token, \n        uint cap,\n        uint256 openingTime,\n        uint256 closingTime,\n        KycContract _kyc)\n        Crowdsale(rate, wallet, token)\n        CappedCrowdsale(cap)\n        TimedCrowdsale( openingTime,closingTime)\n    { \n        kyc = _kyc;\n        \n        }\n\n    function _preValidatePurchase(address beneficiary, uint256 weiAmount) \n    internal view override(Crowdsale, CappedCrowdsale, TimedCrowdsale){\n        super._preValidatePurchase(beneficiary, weiAmount);\n        require(kyc.kycCompleted(beneficiary), \"KYC not completed yet, aborting\");\n    }\n\n}",
  "sourcePath": "/Users/Thomas/Desktop/cryptoAppV1/contracts/AppolloTokenCrowdsale.sol",
  "compiler": {
    "name": "solc",
    "version": "0.8.0+commit.c7dfd78e.Emscripten.clang"
  },
  "schemaVersion": "3.3.4",
  "updatedAt": "2021-04-27T00:14:27.990Z",
  "devdoc": {
    "kind": "dev",
    "methods": {
      "buyTokens(address)": {
        "details": "low level token purchase ***DO NOT OVERRIDE*** This function has a non-reentrancy guard, so it shouldn't be called by another `nonReentrant` function.",
        "params": {
          "beneficiary": "Recipient of the token purchase"
        }
      },
      "cap()": {
        "returns": {
          "_0": "the cap of the crowdsale."
        }
      },
      "capReached()": {
        "details": "Checks whether the cap has been reached.",
        "returns": {
          "_0": "Whether the cap was reached"
        }
      },
      "closingTime()": {
        "returns": {
          "_0": "the crowdsale closing time."
        }
      },
      "hasClosed()": {
        "details": "Checks whether the period in which the crowdsale is open has already elapsed.",
        "returns": {
          "_0": "Whether crowdsale period has elapsed"
        }
      },
      "isOpen()": {
        "returns": {
          "_0": "true if the crowdsale is open, false otherwise."
        }
      },
      "openingTime()": {
        "returns": {
          "_0": "the crowdsale opening time."
        }
      },
      "rate()": {
        "returns": {
          "_0": "the number of token units a buyer gets per wei."
        }
      },
      "token()": {
        "returns": {
          "_0": "the token being sold."
        }
      },
      "wallet()": {
        "returns": {
          "_0": "the address where funds are collected."
        }
      },
      "weiRaised()": {
        "returns": {
          "_0": "the amount of wei raised."
        }
      }
    },
    "version": 1
  },
  "userdoc": {
    "events": {
      "TimedCrowdsaleExtended(uint256,uint256)": {
        "notice": "Event for crowdsale extending"
      },
      "TokensPurchased(address,address,uint256,uint256)": {
        "notice": "Event for token purchase logging"
      }
    },
    "kind": "user",
    "methods": {},
    "version": 1
  }
}