{
  "contractName": "AppolloTokenCrowdsale",
  "abi": [
    {
      "inputs": [
        {
          "internalType": "uint256",
          "name": "rate",
          "type": "uint256"
        },
        {
          "internalType": "address payable",
          "name": "wallet",
          "type": "address"
        },
        {
          "internalType": "contract IERC20",
          "name": "token",
          "type": "address"
        },
        {
          "internalType": "uint256",
          "name": "cap",
          "type": "uint256"
        },
        {
          "internalType": "contract KycContract",
          "name": "_kyc",
          "type": "address"
        }
      ],
      "stateMutability": "nonpayable",
      "type": "constructor"
    },
    {
      "anonymous": false,
      "inputs": [
        {
          "indexed": true,
          "internalType": "address",
          "name": "purchaser",
          "type": "address"
        },
        {
          "indexed": true,
          "internalType": "address",
          "name": "beneficiary",
          "type": "address"
        },
        {
          "indexed": false,
          "internalType": "uint256",
          "name": "value",
          "type": "uint256"
        },
        {
          "indexed": false,
          "internalType": "uint256",
          "name": "amount",
          "type": "uint256"
        }
      ],
      "name": "TokensPurchased",
      "type": "event"
    },
    {
      "inputs": [
        {
          "internalType": "address",
          "name": "beneficiary",
          "type": "address"
        }
      ],
      "name": "buyTokens",
      "outputs": [],
      "stateMutability": "payable",
      "type": "function",
      "payable": true
    },
    {
      "inputs": [],
      "name": "cap",
      "outputs": [
        {
          "internalType": "uint256",
          "name": "",
          "type": "uint256"
        }
      ],
      "stateMutability": "view",
      "type": "function",
      "constant": true
    },
    {
      "inputs": [],
      "name": "capReached",
      "outputs": [
        {
          "internalType": "bool",
          "name": "",
          "type": "bool"
        }
      ],
      "stateMutability": "view",
      "type": "function",
      "constant": true
    },
    {
      "inputs": [
        {
          "internalType": "address",
          "name": "",
          "type": "address"
        }
      ],
      "name": "contributions",
      "outputs": [
        {
          "internalType": "uint256",
          "name": "",
          "type": "uint256"
        }
      ],
      "stateMutability": "view",
      "type": "function",
      "constant": true
    },
    {
      "inputs": [],
      "name": "investorHardCap",
      "outputs": [
        {
          "internalType": "uint256",
          "name": "",
          "type": "uint256"
        }
      ],
      "stateMutability": "view",
      "type": "function",
      "constant": true
    },
    {
      "inputs": [],
      "name": "investorMinCap",
      "outputs": [
        {
          "internalType": "uint256",
          "name": "",
          "type": "uint256"
        }
      ],
      "stateMutability": "view",
      "type": "function",
      "constant": true
    },
    {
      "inputs": [],
      "name": "rate",
      "outputs": [
        {
          "internalType": "uint256",
          "name": "",
          "type": "uint256"
        }
      ],
      "stateMutability": "view",
      "type": "function",
      "constant": true
    },
    {
      "inputs": [],
      "name": "token",
      "outputs": [
        {
          "internalType": "contract IERC20",
          "name": "",
          "type": "address"
        }
      ],
      "stateMutability": "view",
      "type": "function",
      "constant": true
    },
    {
      "inputs": [],
      "name": "wallet",
      "outputs": [
        {
          "internalType": "address payable",
          "name": "",
          "type": "address"
        }
      ],
      "stateMutability": "view",
      "type": "function",
      "constant": true
    },
    {
      "inputs": [],
      "name": "weiRaised",
      "outputs": [
        {
          "internalType": "uint256",
          "name": "",
          "type": "uint256"
        }
      ],
      "stateMutability": "view",
      "type": "function",
      "constant": true
    },
    {
      "stateMutability": "payable",
      "type": "receive",
      "payable": true
    }
  ],
  "bytecode": "0x608060405266071afd498d00006005556802b5e3af16b18800006006553480156200002957600080fd5b50604051620019ff380380620019ff83398181016040528101906200004f919062000309565b81858585600160008190555060008311620000a1576040517f08c379a0000000000000000000000000000000000000000000000000000000008152600401620000989062000523565b60405180910390fd5b600073ffffffffffffffffffffffffffffffffffffffff168273ffffffffffffffffffffffffffffffffffffffff16141562000114576040517f08c379a00000000000000000000000000000000000000000000000000000000081526004016200010b9062000545565b60405180910390fd5b600073ffffffffffffffffffffffffffffffffffffffff168173ffffffffffffffffffffffffffffffffffffffff16141562000187576040517f08c379a00000000000000000000000000000000000000000000000000000000081526004016200017e90620004df565b60405180910390fd5b8260038190555081600260006101000a81548173ffffffffffffffffffffffffffffffffffffffff021916908373ffffffffffffffffffffffffffffffffffffffff16021790555080600160006101000a81548173ffffffffffffffffffffffffffffffffffffffff021916908373ffffffffffffffffffffffffffffffffffffffff1602179055505050506000811162000259576040517f08c379a0000000000000000000000000000000000000000000000000000000008152600401620002509062000501565b60405180910390fd5b806008819055505080600960006101000a81548173ffffffffffffffffffffffffffffffffffffffff021916908373ffffffffffffffffffffffffffffffffffffffff16021790555050505050506200065a565b600081519050620002be81620005f2565b92915050565b600081519050620002d5816200060c565b92915050565b600081519050620002ec8162000626565b92915050565b600081519050620003038162000640565b92915050565b600080600080600060a086880312156200032257600080fd5b60006200033288828901620002f2565b95505060206200034588828901620002ad565b94505060406200035888828901620002c4565b93505060606200036b88828901620002f2565b92505060806200037e88828901620002db565b9150509295509295909350565b60006200039a60248362000567565b91507f43726f776473616c653a20746f6b656e20697320746865207a65726f2061646460008301527f72657373000000000000000000000000000000000000000000000000000000006020830152604082019050919050565b60006200040260198362000567565b91507f43617070656443726f776473616c653a206361702069732030000000000000006000830152602082019050919050565b60006200044460148362000567565b91507f43726f776473616c653a207261746520697320300000000000000000000000006000830152602082019050919050565b60006200048660258362000567565b91507f43726f776473616c653a2077616c6c657420697320746865207a65726f20616460008301527f64726573730000000000000000000000000000000000000000000000000000006020830152604082019050919050565b60006020820190508181036000830152620004fa816200038b565b9050919050565b600060208201905081810360008301526200051c81620003f3565b9050919050565b600060208201905081810360008301526200053e8162000435565b9050919050565b60006020820190508181036000830152620005608162000477565b9050919050565b600082825260208201905092915050565b60006200058582620005c8565b9050919050565b60006200059982620005c8565b9050919050565b6000620005ad8262000578565b9050919050565b6000620005c18262000578565b9050919050565b600073ffffffffffffffffffffffffffffffffffffffff82169050919050565b6000819050919050565b620005fd816200058c565b81146200060957600080fd5b50565b6200061781620005a0565b81146200062357600080fd5b50565b6200063181620005b4565b81146200063d57600080fd5b50565b6200064b81620005e8565b81146200065757600080fd5b50565b611395806200066a6000396000f3fe6080604052600436106100955760003560e01c8063521eb27311610059578063521eb2731461019a578063b25d7f54146101c5578063ec8ac4d8146101f0578063ed5db8741461020c578063fc0c546a14610237576100ac565b80632c4e722e146100b1578063355274ea146100dc5780634042b66f1461010757806342e94c90146101325780634f9359451461016f576100ac565b366100ac576100aa6100a5610262565b61026a565b005b600080fd5b3480156100bd57600080fd5b506100c6610390565b6040516100d3919061111a565b60405180910390f35b3480156100e857600080fd5b506100f161039a565b6040516100fe919061111a565b60405180910390f35b34801561011357600080fd5b5061011c6103a4565b604051610129919061111a565b60405180910390f35b34801561013e57600080fd5b5061015960048036038101906101549190610b4d565b6103ae565b604051610166919061111a565b60405180910390f35b34801561017b57600080fd5b506101846103c6565b6040516101919190610fa2565b60405180910390f35b3480156101a657600080fd5b506101af6103da565b6040516101bc9190610f5e565b60405180910390f35b3480156101d157600080fd5b506101da610404565b6040516101e7919061111a565b60405180910390f35b61020a60048036038101906102059190610b4d565b61026a565b005b34801561021857600080fd5b5061022161040a565b60405161022e919061111a565b60405180910390f35b34801561024357600080fd5b5061024c610410565b6040516102599190610fbd565b60405180910390f35b600033905090565b600260005414156102b0576040517f08c379a00000000000000000000000000000000000000000000000000000000081526004016102a7906110da565b60405180910390fd5b600260008190555060003490506102c7828261043a565b60006102d282610532565b90506102e98260045461055090919063ffffffff16565b6004819055506102f98382610566565b8273ffffffffffffffffffffffffffffffffffffffff16610318610262565b73ffffffffffffffffffffffffffffffffffffffff167f6faf93231a456e552dbc9961f58d9713ee4f2e69d15f1975b050ef0911053a7b848460405161035f929190611135565b60405180910390a36103718383610574565b610379610578565b61038383836105e3565b5050600160008190555050565b6000600354905090565b6000600854905090565b6000600454905090565b60076020528060005260406000206000915090505481565b60006008546103d36103a4565b1015905090565b6000600260009054906101000a900473ffffffffffffffffffffffffffffffffffffffff16905090565b60055481565b60065481565b6000600160009054906101000a900473ffffffffffffffffffffffffffffffffffffffff16905090565b61044482826105e7565b600960009054906101000a900473ffffffffffffffffffffffffffffffffffffffff1673ffffffffffffffffffffffffffffffffffffffff1663df235fe4836040518263ffffffff1660e01b815260040161049f9190610f43565b60206040518083038186803b1580156104b757600080fd5b505afa1580156104cb573d6000803e3d6000fd5b505050506040513d601f19601f820116820180604052508101906104ef9190610b76565b61052e576040517f08c379a00000000000000000000000000000000000000000000000000000000081526004016105259061103a565b60405180910390fd5b5050565b60006105496003548361065d90919063ffffffff16565b9050919050565b6000818361055e9190611190565b905092915050565b6105708282610673565b5050565b5050565b600260009054906101000a900473ffffffffffffffffffffffffffffffffffffffff1673ffffffffffffffffffffffffffffffffffffffff166108fc349081150290604051600060405180830381858888f193505050501580156105e0573d6000803e3d6000fd5b50565b5050565b6105f182826106c4565b6105fb828261077c565b6008546106188261060a6103a4565b61055090919063ffffffff16565b1115610659576040517f08c379a000000000000000000000000000000000000000000000000000000000815260040161065090610ffa565b60405180910390fd5b5050565b6000818361066b91906111e6565b905092915050565b6106c08282600160009054906101000a900473ffffffffffffffffffffffffffffffffffffffff1673ffffffffffffffffffffffffffffffffffffffff166108309092919063ffffffff16565b5050565b600073ffffffffffffffffffffffffffffffffffffffff168273ffffffffffffffffffffffffffffffffffffffff161415610734576040517f08c379a000000000000000000000000000000000000000000000000000000000815260040161072b9061105a565b60405180910390fd5b6000811415610778576040517f08c379a000000000000000000000000000000000000000000000000000000000815260040161076f906110fa565b60405180910390fd5b5050565b6000600760008473ffffffffffffffffffffffffffffffffffffffff1673ffffffffffffffffffffffffffffffffffffffff16815260200190815260200160002054905060006107d5838361055090919063ffffffff16565b905060055481101580156107eb57506006548111155b61082a576040517f08c379a00000000000000000000000000000000000000000000000000000000081526004016108219061107a565b60405180910390fd5b50505050565b6108b18363a9059cbb60e01b848460405160240161084f929190610f79565b604051602081830303815290604052907bffffffffffffffffffffffffffffffffffffffffffffffffffffffff19166020820180517bffffffffffffffffffffffffffffffffffffffffffffffffffffffff83818316178352505050506108b6565b505050565b6000610918826040518060400160405280602081526020017f5361666545524332303a206c6f772d6c6576656c2063616c6c206661696c65648152508573ffffffffffffffffffffffffffffffffffffffff1661097d9092919063ffffffff16565b905060008151111561097857808060200190518101906109389190610b76565b610977576040517f08c379a000000000000000000000000000000000000000000000000000000000815260040161096e906110ba565b60405180910390fd5b5b505050565b606061098c8484600085610995565b90509392505050565b6060824710156109da576040517f08c379a00000000000000000000000000000000000000000000000000000000081526004016109d19061101a565b60405180910390fd5b6109e385610aa9565b610a22576040517f08c379a0000000000000000000000000000000000000000000000000000000008152600401610a199061109a565b60405180910390fd5b6000808673ffffffffffffffffffffffffffffffffffffffff168587604051610a4b9190610f2c565b60006040518083038185875af1925050503d8060008114610a88576040519150601f19603f3d011682016040523d82523d6000602084013e610a8d565b606091505b5091509150610a9d828286610abc565b92505050949350505050565b600080823b905060008111915050919050565b60608315610acc57829050610b1c565b600083511115610adf5782518084602001fd5b816040517f08c379a0000000000000000000000000000000000000000000000000000000008152600401610b139190610fd8565b60405180910390fd5b9392505050565b600081359050610b3281611331565b92915050565b600081519050610b4781611348565b92915050565b600060208284031215610b5f57600080fd5b6000610b6d84828501610b23565b91505092915050565b600060208284031215610b8857600080fd5b6000610b9684828501610b38565b91505092915050565b610ba881611252565b82525050565b610bb781611240565b82525050565b610bc681611264565b82525050565b6000610bd78261115e565b610be18185611174565b9350610bf18185602086016112be565b80840191505092915050565b610c068161129a565b82525050565b6000610c1782611169565b610c21818561117f565b9350610c318185602086016112be565b610c3a81611320565b840191505092915050565b6000610c52601d8361117f565b91507f43617070656443726f776473616c653a206361702065786365656465640000006000830152602082019050919050565b6000610c9260268361117f565b91507f416464726573733a20696e73756666696369656e742062616c616e636520666f60008301527f722063616c6c00000000000000000000000000000000000000000000000000006020830152604082019050919050565b6000610cf8601f8361117f565b91507f4b5943206e6f7420636f6d706c65746564207965742c2061626f7274696e67006000830152602082019050919050565b6000610d38602a8361117f565b91507f43726f776473616c653a2062656e656669636961727920697320746865207a6560008301527f726f2061646472657373000000000000000000000000000000000000000000006020830152604082019050919050565b6000610d9e60268361117f565b91507f49766573746f72206d757374206d656574206361706974616c2072657175697260008301527f656d656e747300000000000000000000000000000000000000000000000000006020830152604082019050919050565b6000610e04601d8361117f565b91507f416464726573733a2063616c6c20746f206e6f6e2d636f6e74726163740000006000830152602082019050919050565b6000610e44602a8361117f565b91507f5361666545524332303a204552433230206f7065726174696f6e20646964206e60008301527f6f742073756363656564000000000000000000000000000000000000000000006020830152604082019050919050565b6000610eaa601f8361117f565b91507f5265656e7472616e637947756172643a207265656e7472616e742063616c6c006000830152602082019050919050565b6000610eea60198361117f565b91507f43726f776473616c653a20776569416d6f756e742069732030000000000000006000830152602082019050919050565b610f2681611290565b82525050565b6000610f388284610bcc565b915081905092915050565b6000602082019050610f586000830184610bae565b92915050565b6000602082019050610f736000830184610b9f565b92915050565b6000604082019050610f8e6000830185610bae565b610f9b6020830184610f1d565b9392505050565b6000602082019050610fb76000830184610bbd565b92915050565b6000602082019050610fd26000830184610bfd565b92915050565b60006020820190508181036000830152610ff28184610c0c565b905092915050565b6000602082019050818103600083015261101381610c45565b9050919050565b6000602082019050818103600083015261103381610c85565b9050919050565b6000602082019050818103600083015261105381610ceb565b9050919050565b6000602082019050818103600083015261107381610d2b565b9050919050565b6000602082019050818103600083015261109381610d91565b9050919050565b600060208201905081810360008301526110b381610df7565b9050919050565b600060208201905081810360008301526110d381610e37565b9050919050565b600060208201905081810360008301526110f381610e9d565b9050919050565b6000602082019050818103600083015261111381610edd565b9050919050565b600060208201905061112f6000830184610f1d565b92915050565b600060408201905061114a6000830185610f1d565b6111576020830184610f1d565b9392505050565b600081519050919050565b600081519050919050565b600081905092915050565b600082825260208201905092915050565b600061119b82611290565b91506111a683611290565b9250827fffffffffffffffffffffffffffffffffffffffffffffffffffffffffffffffff038211156111db576111da6112f1565b5b828201905092915050565b60006111f182611290565b91506111fc83611290565b9250817fffffffffffffffffffffffffffffffffffffffffffffffffffffffffffffffff0483118215151615611235576112346112f1565b5b828202905092915050565b600061124b82611270565b9050919050565b600061125d82611270565b9050919050565b60008115159050919050565b600073ffffffffffffffffffffffffffffffffffffffff82169050919050565b6000819050919050565b60006112a5826112ac565b9050919050565b60006112b782611270565b9050919050565b60005b838110156112dc5780820151818401526020810190506112c1565b838111156112eb576000848401525b50505050565b7f4e487b7100000000000000000000000000000000000000000000000000000000600052601160045260246000fd5b6000601f19601f8301169050919050565b61133a81611240565b811461134557600080fd5b50565b61135181611264565b811461135c57600080fd5b5056fea26469706673582212206a4d30d32efd37927a4129a81bfca343d52fb923e33da49b0ceddb2ff95e293a64736f6c63430008000033",
  "immutableReferences": {},
  "source": "// SPDX-License-Identifier: All Rights Reserved\"\npragma solidity ^0.8.0;\n\nimport \"@openzeppelin//contracts/utils/math/SafeMath.sol\";\nimport \"./CappedCrowdsale.sol\";\nimport \"./Crowdsale.sol\";\nimport \"./KycContract.sol\";\n\ncontract AppolloTokenCrowdsale is Crowdsale, CappedCrowdsale {\n\n    using SafeMath for uint256;\n\n    KycContract kyc;\n    constructor(\n        // rate in TKNbits\n        uint256 rate, \n        address payable wallet,\n        IERC20 token, \n        uint cap,\n        KycContract _kyc)\n        Crowdsale(rate, wallet, token)\n        CappedCrowdsale(cap)\n    { \n        kyc = _kyc;\n        \n        }\n\n    function _preValidatePurchase(address beneficiary, uint256 weiAmount) \n    internal view override(Crowdsale, CappedCrowdsale){\n        super._preValidatePurchase(beneficiary, weiAmount);\n        require(kyc.kycCompleted(beneficiary), \"KYC not completed yet, aborting\");\n    }\n\n}",
  "sourcePath": "/Users/Thomas/Desktop/cryptoAppV1/contracts/AppolloTokenCrowdsale.sol",
  "compiler": {
    "name": "solc",
    "version": "0.8.0+commit.c7dfd78e.Emscripten.clang"
  },
  "schemaVersion": "3.3.4",
  "updatedAt": "2021-04-29T00:12:35.960Z",
  "networkType": "ethereum",
  "devdoc": {
    "kind": "dev",
    "methods": {
      "buyTokens(address)": {
        "details": "low level token purchase ***DO NOT OVERRIDE*** This function has a non-reentrancy guard, so it shouldn't be called by another `nonReentrant` function.",
        "params": {
          "beneficiary": "Recipient of the token purchase"
        }
      },
      "cap()": {
        "returns": {
          "_0": "the cap of the crowdsale."
        }
      },
      "capReached()": {
        "details": "Checks whether the cap has been reached.",
        "returns": {
          "_0": "Whether the cap was reached"
        }
      },
      "rate()": {
        "returns": {
          "_0": "the number of token units a buyer gets per wei."
        }
      },
      "token()": {
        "returns": {
          "_0": "the token being sold."
        }
      },
      "wallet()": {
        "returns": {
          "_0": "the address where funds are collected."
        }
      },
      "weiRaised()": {
        "returns": {
          "_0": "the amount of wei raised."
        }
      }
    },
    "version": 1
  },
  "userdoc": {
    "events": {
      "TokensPurchased(address,address,uint256,uint256)": {
        "notice": "Event for token purchase logging"
      }
    },
    "kind": "user",
    "methods": {},
    "version": 1
  }
}