{
  "contractName": "TestingTime",
  "abi": [
    {
      "inputs": [
        {
          "internalType": "uint256",
          "name": "_startTime",
          "type": "uint256"
        },
        {
          "internalType": "uint256",
          "name": "_endTime",
          "type": "uint256"
        }
      ],
      "stateMutability": "nonpayable",
      "type": "constructor"
    },
    {
      "inputs": [],
      "name": "hasStarted",
      "outputs": [
        {
          "internalType": "bool",
          "name": "",
          "type": "bool"
        }
      ],
      "stateMutability": "view",
      "type": "function"
    },
    {
      "inputs": [],
      "name": "hasEnded",
      "outputs": [
        {
          "internalType": "bool",
          "name": "",
          "type": "bool"
        }
      ],
      "stateMutability": "view",
      "type": "function"
    }
  ],
  "bytecode": "0x608060405234801561001057600080fd5b506040516101b33803806101b38339818101604052810190610032919061005c565b816000819055508060018190555050506100b9565b600081519050610056816100a2565b92915050565b6000806040838503121561006f57600080fd5b600061007d85828601610047565b925050602061008e85828601610047565b9150509250929050565b6000819050919050565b6100ab81610098565b81146100b657600080fd5b50565b60ec806100c76000396000f3fe6080604052348015600f57600080fd5b506004361060325760003560e01c806344691f7e146037578063ecb70fb7146051575b600080fd5b603d606b565b604051604891906091565b60405180910390f35b60576077565b604051606291906091565b60405180910390f35b60008054421015905090565b6000600154421015905090565b608b8160aa565b82525050565b600060208201905060a460008301846084565b92915050565b6000811515905091905056fea26469706673582212204a0c47ba436dbdadfc428b66bd38d6996d5aaebda8ce60dc502b9517bdf03ee264736f6c63430008000033",
  "immutableReferences": {},
  "source": "\n// SPDX-License-Identifier: All Rights Reserved\"\npragma solidity ^0.8.0;\n\ncontract TestingTime {\n  uint256 startTime;\n  uint256 endTime;\n\n  constructor(uint256 _startTime,\n              uint256 _endTime)  {\n    startTime = _startTime;\n    endTime = _endTime;\n  }\n\n  function hasStarted() public view returns(bool) {\n    return (block.timestamp >= startTime);\n  }\n\n  function hasEnded() public view returns(bool) {\n    return (block.timestamp >= endTime);\n  }\n}",
  "sourcePath": "/Users/Thomas/Desktop/cryptoAppV1/contracts/TestingTime.sol",
  "compiler": {
    "name": "solc",
    "version": "0.8.0+commit.c7dfd78e.Emscripten.clang"
  },
  "schemaVersion": "3.3.4",
  "updatedAt": "2021-05-04T22:58:13.634Z",
  "networkType": "ethereum",
  "devdoc": {
    "kind": "dev",
    "methods": {},
    "version": 1
  },
  "userdoc": {
    "kind": "user",
    "methods": {},
    "version": 1
  }
}